:10000000200C0020B9280000B5280000B528000009
:1000100000000000000000000000000000000000E0
:10002000000000000000000000000000B5280000F3
:100030000000000000000000B5280000B528000006
:10004000B5280000B5280000B5280000B52800003C
:10005000B51F0000B5280000AD0100000000000041
:10006000B5280000391F0000491F0000591F00007B
:1000700001170000591A0000691A0000ED00000085
:10008000B5280000B5280000B528000010B5064CC2
:100090002378002B07D1054B002B02D0044800E049
:1000A00000BF0123237010BD2000002000000000CD
:1000B000082E0000084B10B5002B03D00749084854
:1000C00000E000BF07480368002B00D110BD064BBD
:1000D000002BFBD09847F9E7000000002400002027
:1000E000082E0000082E00000000000070B52E4B06
:1000F0001C6823681D7EEDB2EA0705D5E27ED207B3
:1001000002D5A27ED20716D46B0708D50423226835
:100110001376E37E9B0702D5A37E9B073CD4AB07F7
:1001200008D5022322681376E37E5B0702D5A37EFF
:100130005B0735D470BD01221A762268537E5BB20C
:10014000002BFBDB61698B1C6361538B9BB20B80C3
:10015000238B013B9BB22383002B11D0637F002BA9
:10016000D2D02268537E5BB2002BFBDB137B0221D3
:100170000B4313732268537E5BB2002BFBDBC3E798
:10018000237F052BC0D10023237701332268937589
:100190002000A3689847B7E72000E3689847BEE7C8
:1001A000236920009847C5E75401002010B5264B6D
:1001B000984726490B8C072213409B002448185867
:1001C00003781A403F23CA540F33CA5CD2B2037873
:1001D0001B012049C91849881F4CE3185B88CB1ABA
:1001E0004361D3070FD501214E23184AD1543E3B1A
:1001F0004374037CDB0703D54368002B00D098478A
:10020000164B984710BD93070DD502214E230F4A78
:10021000D15400234374037C9B07F1D58368002BE2
:10022000EED09847ECE75307EAD504214E23074A5E
:10023000D154483B4374037C5B07E1D5C368002B72
:10024000DED09847DCE7C046C920000000480041E6
:100250003C00002060010020500000200921000027
:1002600010B5044B9847030ADBB2034A1370C0B2BF
:10027000507010BDCD030000E007002010B50B4BFF
:100280001B6A5B060BD40A480A4B98470A4B1B882B
:10029000C01A0A4B18600122094B1A7010BD04489D
:1002A000044B9847044B1880F8E7C04600440041CF
:1002B000B001002097190000A8000020A000002035
:1002C000A600002010B58EB001AA00230021937073
:1002D00093711381002050709172D17211739173D8
:1002E00051731174536193611177136253621385D3
:1002F00053859385033313708023DB009380084C70
:1003000008492000084B98472268D37B5BB2002B3A
:10031000FBDB138802210B4313800EB010BDC046D7
:10032000B0010020001C00423517000010B584B059
:1003300001AC2000084B984706230193C023DB0241
:100340006360022323720133E37221000620034B12
:10035000984704B010BDC0462D05000041050000BF
:1003600070B5064C8025A5610A20054B984765614C
:1003700000210448044B984770BDC046004400412A
:1003800049200000B00100206519000010B5014BA4
:10039000984710BD6103000070B582B001AC012325
:1003A00063700026A670237021000720054DA84722
:1003B0008022054B5A61267021000620A84702B012
:1003C00070BDC046A120000000440041064B1B78D0
:1003D000002B06D00022044B1A70044B1A68044B01
:1003E0001A80034B18887047A6000020A000002048
:1003F000A400002010B50C4C00220C4920000C4B2E
:10040000984720680B4B98470B4B1A5C1F231340EF
:10041000012211009940094B1960637E01210B43B1
:10042000637623685A7310BDB00100208D0300006D
:10043000C3190000111700005C2D000000E100E06E
:1004400010B5002206210448044B984700210620DD
:10045000034B984710BDC0467D020000691F000095
:10046000951F000010B5024B9847024B984710BDEE
:10047000C50200002D03000010B5024B9847024B47
:10048000984710BDF50300004104000010B5034B70
:100490009847034B9847034B984710BD99030000BA
:1004A0006504000079040000044A137802210B431C
:1004B000137053785BB2002BFBDB704700180040D1
:1004C00000B583B0124A936940210B43936101A99F
:1004D00000230B7005200F4B984705200E4B9847C3
:1004E0000E4A137801210B43137053785BB2002B33
:1004F000FBDB0B4B19004031002204C39942FCD1B5
:100500001022084B1A60084B984703B000BDC04644
:10051000000400405D270000D126000000180040C4
:10052000CC01002000E100E0A904000000230360EA
:10053000436001220272427283720233C3727047B7
:10054000F0B583B005000C0001A900234B70CB70FF
:1005500023790B70237A8B702078154B98470020F5
:100560001F2D00D8134807222A409200E77AA37A69
:10057000002B01D008231F43EB089B00C318996987
:100580000F269640B14397403A000A439A61637A36
:10059000002B06D143690122AA409343436103B073
:1005A000F0BD42690123AB4013434361F7E7C04606
:1005B000552800000018004010B5490840230024C9
:1005C000814202D2180010BD1C00091A631C9BB2A4
:1005D0008842F9D94023FF2CF4D814800023F1E796
:1005E00010B582B004000E4B1B78002B07D00029F9
:1005F00005D10B4B5B78834210D01D200CE001A984
:100600000C700D20074B98470D20074B9847044B63
:100610005C7001221A70002002B010BD0020FBE7C0
:10062000AC0000205D270000D1260000204B98423E
:1006300017D0204B984224D01F4B984201D0002065
:100640007047012907D000292BD0022905D00329A2
:1006500005D00020F4E71948F2E71948F0E71948F7
:10066000EEE7012907D000291DD0022905D0032972
:1006700005D00020E4E71448E2E71448E0E7144816
:10068000DEE7012907D000290FD0022905D0032970
:1006900005D00020D4E70F48D2E70F48D0E70F4835
:1006A000CEE70F48CCE70F48CAE70F48C8E7C04677
:1006B000000C004200100042000800420300050048
:1006C00003000600030007000200170003001E00DD
:1006D00003001F00030017000300100003001900AF
:1006E00003000400020016000300160030B585B0B8
:1006F00001AA0B4B32CB32C20300019A82420CD0CA
:10070000029A824207D00020039A9A4201D005B093
:1007100030BD023002E0012000E00020C0B2F6E768
:10072000602D0000F0B583B000236A46D37101AAA2
:100730001380694B1888694B1A88694B1B88694973
:1007400009885B1AD9175B184B4067490B80131A4D
:1007500039D4664C0425A561654B18780021654B9A
:10076000984765610022644B1A605E4B1A885C4BA7
:100770001B88D11A00D56FE0604B18780021604BC0
:10078000984700225F4B1A60564B1B88544A1288C8
:100790009B1A16D4514B1B884F4A12889B1A10D4AF
:1007A000534B18780021534B9847544B187800212D
:1007B000534B9847544B01211A6811735A7E8A4350
:1007C0005A7603B0F0BD801AC317C018584003040E
:1007D0001B0C494A11688C46634413604B4A1688C7
:1007E00064227243934201D9434B1A60002201AB49
:1007F0001A80414B1D6880B2454B1988454FB84758
:10080000040031002800B8472418A4B2FF2C1BD9DB
:10081000FF226B46DA71404B1C88404928003D4B53
:100820009847C0B23E4B18550134A4B2FA239B003E
:100830009C420DD0384B1C806B46D979C9B22C4BE9
:1008400018782C4B984790E7E0B26B46D871E2E7F6
:100850000022314B1A80EFE79B1ADA179B1853409E
:100860009DB21B041B0C274A11688C46634413601D
:10087000264A11880A02521A934203D964234B4331
:10088000204A1360184B1B88EB1A1BB201AA138075
:10089000168836B21F4F1B4B1868B8470400214B0F
:1008A00019883000204B98472418194B19882800C4
:1008B000B847201880B2FF280AD9FF226B46DA71A8
:1008C0006B46D979C9B20D4B18780D4B98475BE749
:1008D000C0B26B46D871F3E7B20000204801002097
:1008E000B80000204A010020B4000020004400416C
:1008F000B0000020510C0000BC000020B600002019
:10090000B10C0000C0000020F4050020020000200F
:1009100004000020192A0000AE000020C4090000D5
:100920000C020020000000202D2B00000278120293
:1009300043781343074A138082781202C378134323
:10094000054A13800279120243791343034A138044
:100950007047C04604000020020000200000002074
:1009600010B50C001C4316D0002915D1002B1BD14B
:10097000114C2068114B9847114B1A5C1F231340F0
:100980000122110099400F4B1960637E01210B4336
:10099000637623685A7310BD0B4C20700B4801809E
:1009A00000200B490880E1E70A490A700A4A1380CF
:1009B00000220A4B1A80DBE7F40500201117000023
:1009C0006C2D000000E100E0B0000020B20000202B
:1009D00048010020B6000020B80000204A01002095
:1009E000074B1B8801339BB2FA22D201934203D9F1
:1009F0000022034B1A807047014A1380FBE7C04670
:100A000048010020074B1B8801339BB2FA22D20118
:100A1000934203D90022034B1A807047014A138086
:100A2000FBE7C0464A01002010B5014B984710BDB6
:100A30002507000010B5002202490348034B9847E0
:100A400010BDC046290A0000F4050020C3190000AB
:100A500010B58EB001AA0023002113709371138189
:100A6000002050709172117391735173117453611E
:100A70009361117713625362138553859385013314
:100A8000D37203339370C023DB009380FF212923AB
:100A9000D154084C08492000084B98472268D37B62
:100AA0005BB2002BFBDB138802210B4313800EB0DB
:100AB00010BDC046F40500200018004235170000A4
:100AC00010B584B001AC2000074B98471023019368
:100AD00000236360013323720233E372210000209C
:100AE000024B984704B010BD2D05000041050000E1
:100AF00010B584B001AC2000074B98470F23019339
:100B000000236360013323720233E372210001206A
:100B1000024B984704B010BD2D05000041050000B0
:100B200010B5002200210448044B98470021002002
:100B3000034B984710BDC046050A0000691F00001E
:100B4000951F000010B5002201210448044B98476E
:100B500000210120034B984710BDC046E109000069
:100B6000691F0000951F000010B5024B9847024B0B
:100B7000984710BD510A0000350A000010B5054B1A
:100B80009847054B9847054B9847054B9847054BA9
:100B9000984710BDC10A0000F10A0000450B000093
:100BA000210B0000690B000070B5AAB0204D01AC0C
:100BB000290020001F4B98470623E372F933636036
:100BC000FD3B23760023A3752375E3756375E3610D
:100BD0000122982162549439A1651749A1672362C3
:100BE000992162549439E1651449E16763629A215D
:100BF000625490392166124876316050A3629B336B
:100C0000E254903B63660F4A7933E2500E4E220065
:100C1000290030000D4B9847326802219368194231
:100C2000FCD1136802210B4313602AB070BDC0468B
:100C300000140042E1110000050004000500050059
:100C400005000A0005000B00C80000201D1300006D
:100C5000F8B504000D00124B1B78834210D0002C15
:100C600013D0104F0022022138000F4EB0472A0047
:100C700003213800B0470D4B1D70094B1C70F8BDA7
:100C80000A4B1B788B42EAD1F5E7064F2A00022176
:100C90003800054EB047002203213800B047EAE78C
:100CA000C4000020C8000020A5160000C5000020D8
:100CB000F8B504000D00124B1B78834210D0002CB5
:100CC00013D0104F0022002138000F4EB0472A00E9
:100CD00001213800B0470D4B1D70094B1C70F8BD49
:100CE0000A4B1B788B42EAD1F5E7064F2A00002118
:100CF0003800054EB047002201213800B047EAE72E
:100D0000C6000020C8000020A5160000C700002073
:100D100010B5014B984710BDA90B000070B582B00B
:100D200001AC012363700026A67023702100092006
:100D3000044DA84726700223637021000E20A847A7
:100D400002B070BDA120000010B580229200044BBB
:100D50009A610020034B98470120034B984710BD30
:100D600000440041691100004D11000010B5002041
:100D7000084B98470120084B9847FA208000074B02
:100D8000984780229200064B5A61064A1368013345
:100D9000136010BD4D1100006911000075200000A6
:100DA000004400410C01002010B5104B1B6A5B048D
:100DB00014D50F4A138801339BB2138013889BB25A
:100DC000C822920093420FD90A4B1B68012B0BD10A
:100DD000094B98470022064B1A8005E00022044B7D
:100DE0001A800132034B1A6010BDC0460044004116
:100DF00008010020100100206D0D000010B5FA2040
:100E0000C000034B9847034B9847034B984710BDCE
:100E1000752000001D0D0000490D000070B58EB05A
:100E2000002401940294C0239B0303936B461C741B
:100E30005C7401259D74DD741C7524236A46D454AA
:100E40000C22002106A8144B98476B461C702023E7
:100E50006A46D5540694114B0A93114B0B93114BD0
:100E60000C93114B0D93114E11493000114B9847C3
:100E700034682000104B98471F23184085400F4BC3
:100E80001D603268D369002BFCD123680222134312
:100E900023600EB070BDC0464D2D0000020016004C
:100EA00002001700020018000200190010060020BE
:100EB000000C0042C51A0000191F000000E100E00C
:100EC00010B51C4B1B781C4A1278DBB2934218D029
:100ED000184B1B78DBB2194AD35CDBB20022EA2B39
:100EE00017D01449154C16480B78DBB2E35CDBB223
:100EF00083540B780133DBB20B700132072AF3D134
:100F000010BD00230F4A13700A4A13700A4A137067
:100F1000F6E70849094C0A480B78DBB2E35CDBB220
:100F200083540B780133DBB20B7001320D2AF3D1FD
:100F3000E6E7C04616010020140100204C06002000
:100F4000F40700205001002010B5064C022206498B
:100F50002000064B98473722A35C04210B43A3547F
:100F600010BDC04610060020D10F0000D91C0000A3
:100F7000F0B583B010226B46DA710E4B98470E4BDA
:100F800098470E4B1B78002B11D101220B4B1A7086
:100F90000B4E0C4D0C4C07233200290020000B4F48
:100FA000B8476B46D87107331B78002BF3D103B0D9
:100FB000F0BDC0461D0E0000490F000015010020C5
:100FC000CC070020E007002010060020F11C0000E4
:100FD00070B50122214B1A700022214B1A70214B4F
:100FE0001B78002B1BD1204B1B78DBB20022EA2B95
:100FF00024D01E481C4D1E4C0378DBB2A95CC9B23C
:10100000E15403780133DBB203700132072AF3D1D4
:101010000723154A17491848184CA04770BD114BB3
:101020001A70154C2000164B9847164B984707230B
:101030000D4A10492000114CA047EFE70B480A4D1C
:101040000B4C0378DBB2A95CC9B2E15403780133DD
:10105000DBB2037001320D2AF3D1D9E75001002031
:101060004D0100204E010020CC070020140100207B
:101070004C060020E007002010060020F11C0000B4
:10108000791A0000710F000030B583B010226B4652
:10109000DA71194B78321A7022325A7011329A7002
:1010A0001132DA70154B1B78002B01D103B030BD23
:1010B000134B9847134B1B78DBB2102B04D0E12B5A
:1010C00006D00F4B9847F1E70F48104B9847F8E7C9
:1010D0000C4A94782402D17855792D02937950786E
:1010E00012792B43551EAA41D2B22143441EA0417E
:1010F000C0B2074CA047E4E70808002050010020D8
:10110000C10E0000F4070020F50700202D090000A3
:101110006109000030B583B001AC01236370002287
:10112000A270237021001E20064DA84721001F2019
:10113000A847054B8022D2055A61802212065A61C7
:1011400003B030BDA120000000440041002804D1BC
:101150008022D205034B5A6170478022D205014B91
:101160009A61F9E700440041002804D18022120668
:10117000034B5A61704780221206014B9A61F9E7CE
:10118000004400410020704730B5040017200329B7
:1011900000D930BD114DAA42FBD82068002B10D0D9
:1011A000802464028C40036B1C42FCD18024240305
:1011B0008C4083681C42FCD11C3189000A500020FD
:1011C000E7E7802464008C4083681C42FCD1103126
:1011D000890041184A600020DBE7C046FFFFFF009E
:1011E000002303604C4A42608372C37203734372EC
:1011F0000372C3610362436283620375437583753F
:10120000C37503764376037443748374C3742C22CA
:1012100083540132835401328354013283540132A6
:101220008354013283540132835401328354013296
:101230008354013283540132835401328354013286
:101240008354013283540132835401328354013276
:101250008354013283540132835401328354013266
:101260008354013283540132835401328354013256
:101270008354013283540132835401328354013246
:101280008354013283540132835401328354013236
:101290008354013283540132835401328354013226
:1012A0008354013283540132835401328354013216
:1012B00083540132835401328354013283544132C6
:1012C00083548365836701328354C365C3670132E6
:1012D000835403661A3A83501B3283544366173A89
:1012E0008350183283548366143A835015328354E2
:1012F000C366113A83501232835403670E3A835007
:101300000F32835443670B3A835001210C328154CE
:10131000013283547047C046FFFFFF00F0B5DE4640
:1013200057464E464546E0B58DB006000C00150008
:101330000800CD4B98470300CC490A6A202002439D
:101340000A6222680438920706D50DB03CBC90466C
:101350009946A246AB46F0BD226801271740F4D15A
:10136000C34A053829689142EFD869689142ECD8A0
:10137000E969914200D98BE1296A914200D989E15A
:10138000696A914200D987E1A96A914200D985E151
:101390002A7C013A50425041020601926A7C012A9D
:1013A00031D0AA7C012A34D0EA7C012A37D0A1228C
:1013B000AA5C002A04D080221201019911430191F4
:1013C0002A7A511E8A41920003926A7A012A2CD00D
:1013D0003522AA5C032A00D962E12C21695C0F291D
:1013E00000D95DE1287B0490E87A05902D208246A3
:1013F000AA4400200297844606960E00A046544652
:10140000A946079347E08022920401991143019174
:10141000C7E78022D204019911430191C4E78022D9
:101420001205019911430191C1E7039911430391F9
:10143000CEE79202C0252D012A4032430D790326C2
:101440002E40324355462A434E7976016025354079
:101450002A438D792D02C026B60035402A43CD7926
:101460002D03E026F60135402A43104303431F4372
:1014700008AB624608201B189F50042A28D08A7C9B
:10148000032A00D90CE14E7A0A3404239A46D44444
:101490000F2E00D904E13606F0231B051E40210063
:1014A00025782D04FF231B041D40AA466378802065
:1014B000002B00D102988F780823002F00D1029BC7
:1014C000CF78BB4610275D46002DB2D1029FB0E712
:1014D000069E44464D46079B48465030494641319A
:1014E000002280277F02BC460127B9460227FF372A
:1014F000BA461F001300A0463C0007E0574697403D
:101500003B43013201300231082A0ED00778002F08
:1015100002D0674697403B430F78002FF1D0022F4F
:10152000ECD04F4697403B43EBE7220044469846B9
:1015300013006A7E120130211140287E07220240EA
:1015400011430022802040020F0002E00132042AF1
:1015500007D0A918097D0029F8D0010091400F4358
:10156000F4E7B946321D30003430002102C2904207
:10157000FCD100227263B2639B003E4A9E503460ED
:10158000A023EA5C643BF25409A9AB7A0B701120EA
:10159000394B98471120394B98472F0098372E0028
:1015A000583678239A46AA44773B9B4623005446F4
:1015B0009A4603E001370436B44214D03B78002B3E
:1015C000F8D008AB5A469A70002308AAD3701300CB
:1015D0002022B21812781A705A465A7030781900C0
:1015E000274B9847E6E75446049B1B03059A1202D3
:1015F0001343019A134323600422A3681A42FCD1C7
:10160000FF2323710422A3681A42FCD16B461B7B83
:1016100063710A9BE3600B9B23614346A361194AF4
:10162000A3681342FCD14B46E3631022A3681A421D
:10163000FCD12B686363144AA3681342FCD16B6826
:1016400023641C350021114802008A40A3681A4215
:10165000FCD104CD0B0010339B00E3185A6001311C
:101660000429F1D1002070E685110000000400403B
:10167000FFFFFF00140700205D270000D1260000B7
:10168000552800004000020080000400000108000E
:1016900017205AE6172058E6172056E6172054E67A
:1016A000172052E610B53C23C35C014CA04710BD87
:1016B00089110000F0B5C64600B580000E4BC75832
:1016C0003B68DE6ABB6B7A6B13401E4000240B4BF9
:1016D000984602E00434302C0AD04346E55835429F
:1016E000F8D03B195B68380098473B68DD62F1E74A
:1016F00004BC9046F0BDC04614070020702D0000C9
:1017000010B50020014B984710BDC046B51600002B
:10171000064B984208D0064A0023904201D0180098
:1017200070470133DBB2FAE70023FBE70018004201
:10173000001C0042F0B585B004000D001600080042
:10174000824B9847070003AB12221A705A7002AB03
:101750002E321A8040325A800023A360E360236156
:101760006361237663768200794BD4502560B37829
:10177000082B06D023712B880520DB0705D505B083
:10178000F0BD1720FA07FAD4F4E7EB7B1730DB063D
:10179000F5D42B889B07F2D4337C002B00D07AE061
:1017A000337F002B00D082E06A49086A7A0002ABDE
:1017B000D35A03430B62B378082B00D187E0337808
:1017C0006A46137003ABDF5D69463800624B984789
:1017D0003800624B98473189B3880B43B178B279AE
:1017E000114319437378002B02D080231B01194346
:1017F0002268D37B5BB2002BFBDB2980717B4B1E05
:1018000099418900B37B002B01D001231943226841
:10181000D37B5BB2002BFBDBFF232B71002905D0B0
:101820002268D37B5BB2002BFBDB6971B17AF37A60
:10183000002B01D010231943337B002B01D0202330
:1018400019432268D37B5BB2002BFBDBA9712268B2
:10185000D37B5BB2002BFBDB2379042B3FD0082B1F
:101860005ED01720002B00D089E7D37B5BB2002B22
:10187000FBDB338D2B822268D37B5BB2002BFBDB3F
:10188000738D2B832268D37B5BB2002BFBDBB38D84
:101890006B83002073E701A901238B700022CA70BB
:1018A000327E0A704B70307D2D4B984778E701A946
:1018B00001238B700022CA702432B21812780A7089
:1018C0004B701F33F3181878254B98476CE7086A5C
:1018D0007A1C520002ABD35A03430B626FE7D37BEF
:1018E0005BB2002BFBDB2823F35C2B742268D37BD9
:1018F0005BB2002BFBDB2923F35C2B752268D37BC7
:101900005BB2002BFBDB2A23F35C2B762268D37BB4
:101910005BB2002BFBDB2B23F35C6B7600202EE706
:10192000D37B5BB2002BFBDBB36A2B612268D37BDA
:101930005BB2002BFBDBF36AAB612268D37B5BB24B
:10194000002BFBDB336BEB61002018E71117000065
:1019500018070020000400405D270000D126000089
:10196000552800000268D37B5BB2002BFBDB0379B8
:10197000042B05D0082B0BD01720002B04D0704768
:10198000C9B211740020FAE789B211820020F6E78B
:1019900011610020F3E70268D37B5BB2002BFBDB15
:1019A0000379042B05D0082B09D00020002B03D08D
:1019B0007047107CC0B2FBE7108A80B2F8E710696C
:1019C000F6E7931C9B001950022A09D0032A0CD079
:1019D000012393401A00037E1343037600207047CF
:1019E000037E102213430376F8E7037E202213437D
:1019F0000376F3E770B58000164BC45823689D7BCF
:101A0000227E637E13401D40EB0706D4AB070BD448
:101A1000EB0610D4AB0615D470BD2000A368984720
:101A2000012322689373F1E72000E36898470223BB
:101A300022689373ECE720002369984710232268FB
:101A40009373E7E7200063699847236820229A731D
:101A5000E2E7C0461807002010B50020014B984768
:101A600010BDC046F519000010B50120014B984784
:101A700010BDC046F519000070B5050004682000CF
:101A80000E4B98471F2318401E3B834080220C4971
:101A90008B502A68D369002BFCD18F3323752376B2
:101AA00023680222934323602A68D369002BFCD168
:101AB000236801221343236070BDC046191F000034
:101AC00000E100E0F0B58BB005000C0016002960C5
:101AD0000B681C209B0701D50BB0F0BD0B681738B5
:101AE000DB07F9D408006F4B98476F4A116A871CCF
:101AF0000123BB400B43136209A92427F35D0B703C
:101B00000E30C3B201931800684B98470198684B98
:101B10009847F05D0021674B98473378012B3FD001
:101B20003378002B03D123680822134323602B0052
:101B30000C3329002831002204C38B42FCD100233E
:101B4000EB62AB620024AB862B863633EC54013358
:101B5000EC540133EC54353B6B722C712868514BBB
:101B6000984707005449554B9847BF00544BFD50C8
:101B70002F6804AB80221A705C707F3A9A70DC7018
:101B80003378002B02D1002204AB9A70B36A05931C
:101B9000F36A0693336B0793736B089300240BE08F
:101BA00023680C2213432360BAE73800454B98475B
:101BB0000AE00134042C10D0E1B2A30002AA0C20E8
:101BC0001218D0580028F0D0431CF2D004A9087095
:101BD000000CC0B23C4B9847EBE733786B71337C19
:101BE000AB71B37CEB71337D2B72002202ABDA80D8
:101BF0003378012B12D03378002B26D1B069B28B09
:101C00007B6AF17F0904B47F214319437962202361
:101C1000F35C002B1BD040231A4318E02868214BAB
:101C200098470E30C0B2294B9847010002AB9A1D6D
:101C3000B069274B984703001720002B00D04BE7D3
:101C400002AB06331B783B73D5E700220020736894
:101C5000B1680B43F1680B430343317C0A43717C49
:101C6000002903D11B498978890701D580210B43BD
:101C7000B17C002902D0802189020A43F17C00292D
:101C800002D0802189000A43317D002902D08021C1
:101C900089010A4339680B433B607B681A437A60C9
:101CA000002019E7ED060000000400405D27000059
:101CB000D1260000E1050000391D0000DD1E0000F6
:101CC000200700202D06000055280000792700007D
:101CD000B905000000200041931C9B00C318596007
:101CE0003621012393401A00435C13434354704749
:101CF00030B51724002B01D1200030BDC579053443
:101D0000002DF9D01C34055D333C052DF4D08386BD
:101D100003868262C16205223823C254363B437275
:101D200003689A7580321A7642790024002AE3D13A
:101D300002321A769A75DFE7F8B58000604BC55815
:101D40002E683723EF5C3622AA5C1740337EB47DC1
:101D50001C40E30714D56B79002B11D16B7A002B53
:101D60000ED0EB6A1A780133EB62B262AB8E013BA4
:101D70009BB2AB86AB8E9BB2002B01D10133337586
:101D8000630705D5738B5B0720D5B36A0423738380
:101D9000A3070BD56B79002B13D10122494B1A7085
:101DA0006B7A022B00D176E002233376230708D525
:101DB0006B79002B05D1083333753376BB0600D51C
:101DC00070E064B2002C00DA70E0F8BDB36ADBB2F8
:101DD000AA6A1370A96A4B1CAB622B8E013B9BB2A3
:101DE0002B86394A13780133DBB21370012B1BD0D9
:101DF0002B8E9BB2002BCBD1334A1370334A137016
:101E0000334A1370334A13703822AB54043333759A
:101E10006B7A022B38D06B7A002BB9D1BB07B7D5C0
:101E200028002B699847B3E70122284B1A7000233A
:101E3000274A1370274A13700B78DBB2EA2B11D0B4
:101E40000B78DBB28C2B03D00B78DBB2CC2BCFD151
:101E50000B78DBB2CC2B0ED00223EA6A1370EA6A4D
:101E60005370C5E7AB8E09339BB2AB862B8E09331B
:101E70009BB22B86BCE7AB8E02339BB2AB862B8E1C
:101E800002339BB22B86B3E77B0700D480E72800A0
:101E90006B6998477CE77B0700D485E728006B696E
:101EA000984781E728002B6A98478AE78023337593
:101EB00033767B0600D488E76B6A2800984784E76E
:101EC000200700204E010020170100204F010020B4
:101ED0004C0100204D0100207047000030B50A4B36
:101EE0001B78002B0CD1094C094D2560094B0022B1
:101EF0001A6065605A60A5609A600132024B1A70E0
:101F00008000024BC15030BD180100201C01002090
:101F1000D91E00002007002010B582B001AC0923B3
:101F20002370013363700133A370024B984720562E
:101F300002B010BDED06000010B5024B1B6800207A
:101F4000984710BD1C01002010B5024B5B680120B2
:101F5000984710BD1C01002010B5024B9B68022061
:101F6000984710BD1C0100201723002A01D018003B
:101F700070478B00064A9B58002B03D0834205D044
:101F80001D23F4E7890088500023F0E70023EEE7E3
:101F9000CC0100201723002901D01800704700222F
:101FA0001F2800D8024A01238340D3600023F4E7AE
:101FB0000018004070B50022104B1A700023104921
:101FC0001F25104E0D4C0AE00D4908E0237801331F
:101FD000DBB223700F2B10D800211F2BF4D928005F
:101FE00018400122824008691042EFD00A619B002C
:101FF0009B59002BEAD09847E8E770BD2C070020DA
:1020000000180040CC01002070B50020084B984714
:102010000500084CFA218900A047074B18600749C2
:102020002800A047064B18600522064B1A6070BDB9
:1020300045260000192A00000800002040420F0039
:102040000C00002010E000E030B5084B1C68084A86
:10205000002580214902013807D3002CFBD05460B1
:10206000956013680B42FCD0F5E730BD0C000020F2
:1020700010E000E030B5084B1C68084A00258021BC
:102080004902013807D3002CFBD0546095601368D7
:102090000B42FCD0F5E730BD0800002010E000E066
:1020A00000B583B001AB80221A700A785A704A7862
:1020B0009A708A78DA701900014B984703B000BD16
:1020C00055280000704700000C4B1B68002B06D100
:1020D000EFF31083002B07D00022094B1A70074A38
:1020E000136801331360704772B6BFF35F8F00222D
:1020F000044B1A700132024B1A70F0E728010020DD
:102100002C01002010000020084B1A68013A1A60C8
:102110001B68002B09D1064B1B78002B05D0012230
:10212000044B1A70BFF35F8F62B67047280100201E
:102130002C0100201000002010B5082803D88000D2
:102140001B4B1B589F46002030E01A4B18692DE0AE
:10215000194B1B6A9B059B0F1848D84026E0154B6E
:10216000586923E0134B1B6800209B071ED51249BA
:102170001022CB681A42FCD00E4B1B685B0701D4BF
:102180000F4813E000200F4B98470A4B9B681B0435
:102190001B0C58430AE05023074AD35C00205B071E
:1021A00004D5044BD86801E08020000210BDC04671
:1021B000A02D0000300100200008004000127A002D
:1021C000006CDC027927000070B50C490B6A0478BA
:1021D000857840780122104080014026B3430343B4
:1021E0002A40D2018020834313430322224012025B
:1021F0000348034013430B6270BDC0460008004013
:10220000FFFCFFFFF0B5CE46474680B5194B994617
:102210009B6941788C4605780679C778447980783F
:102220000121084080000422934303436046084094
:10223000C000043293430343380008408001402724
:10224000BB43034330000840C0018026B34303432F
:10225000072005402D02084803402B432140090375
:10226000064803400B434A4693610CBC904699468E
:10227000F0BDC04600080040FFF8FFFFFFEFFFFF82
:1022800010B5037A9B061B0C42899205920D1343ED
:1022900018494B608379C27913434288848822436A
:1022A00013434278D20113430B600378042B11D0FF
:1022B000202B0ED1037B9B06028A1343C289120492
:1022C0000D490A4013430B4A936011680B4B0B43B3
:1022D000136010BD037B9B06028A1343C28912045C
:1022E00005490A401343034A9360136804210B43D2
:1022F0001360EEE7300100200000FF03240400001B
:10230000082803D88000254B1B589F46172044E01F
:10231000234A136A02210B43136200203DE0204A46
:10232000936902210B439361002036E01C4A138A13
:1023300002210B43138200202FE0194A938A0221C5
:102340000B439382002028E016490B6802221343B6
:102350000B60134B9A8419000E32CB681A42FCD0E2
:10236000104A91680E4BD96252689A6200229A8490
:1023700019001032CB681A42FCD00A4B1B689BB282
:10238000074A9384002008E0054944228B5C022020
:1023900003438B54002000E000207047C42D000050
:1023A0000008004030010020F0B5CE46474680B519
:1023B0008DB0C222D2004D4B9A604D494B681E220F
:1023C00093431C3A13434B6001AB1A700024494DF0
:1023D000E0B201A9A8470134182CF9D1464C236872
:1023E000DB0442498A695B0E1B04444802401343E4
:1023F0008B610AA80123437083700025C5700371A7
:102400000633037045713E4B984704203D4B984777
:1024100005AB00225D809D809A71DA713F21598160
:102420003B3919705A7023689B0E3F2B5BD005A86F
:102430000372B723DB000382072303733833C3819E
:10244000314B984704A80025457001268670057019
:102450002E4B984706202B4FB8472D4B984701AC81
:102460000296657025726572042323702100012095
:10247000284B994698470120274B98469847666015
:102480006570062323702572657221000320C847FA
:102490000320C047267021000020164B98470020DB
:1024A0001E4B98470720B8471049D022CB681340ED
:1024B000D02BFBD11A4A0023137253729372D3723A
:1024C00001A901224A604B700B724B7207330B70EB
:1024D0000020104B984700200F4B98470DB00CBCC4
:1024E00090469946F0BD203BA1E7C0460008004059
:1024F000004000415D27000024608000FFFF80FF56
:10250000052200000123000081220000C9210000F3
:10251000252500004925000001260000D1260000E5
:1025200000040040064A936908210B43936101228D
:10253000044B1A7019000B781342FCD17047C04647
:1025400000040040000C004070B5060004000D7847
:102550002D0205434B78002B02D08023DB021D4364
:102560004B7A002B02D080231B031D4348680128AF
:1025700010D9431E184234D1022830D90223002238
:1025800001325B009842FBD81202324314008023D0
:102590005B031D430B7A002B02D080239B031D435A
:1025A000134A53785BB2002BFBDB124B9847124B5C
:1025B0001E700F4A53785BB2002BFBDB0C4B9C6008
:1025C0001A0053785BB2002BFBDB094A5368802169
:1025D00049020B401D435560084B984770BD0022CF
:1025E000D2E70402344380239B021D43D2E7C04656
:1025F000000C0040C9200000080C00400921000028
:1026000010B504000B4A53785BB2002BFBDB0A4B7E
:1026100098470A4B1C70074A53785BB2002BFBDBD0
:10262000044A516880235B020B435360044B984774
:1026300010BDC046000C0040C9200000040C004042
:102640000921000070B504001A4A53785BB2002BD0
:10265000FBDB194B9847194B1C70164A53785BB239
:10266000002BFBDB134E7068C004C00E144B984760
:102670000500124B1C707668F602F60F114B1C70A9
:102680000C4A53785BB2002BFBDB0A4B9C6824029C
:10269000240C0D4B9847002E07D1012C07D921009F
:1026A00028000A4B9847050001E00134E540280066
:1026B00070BDC046000C0040C9200000040C004062
:1026C00039210000080C004009210000192A0000EF
:1026D00010B50400064B9847064B1C70064A5388F9
:1026E0008021C9010B435380044B984710BDC0465D
:1026F000C9200000020C0040000C0040092100002D
:1027000010B504000F4B98470F4B1C700F4A5388AD
:102710001B05180F53880E490B40538053880D49F1
:102720000B40538011008022D2014B881342FCD110
:1027300006494A8803020648024013434B80064B71
:10274000984710BDC9200000020C0040000C00405A
:10275000FFF0FFFFFFBFFFFF0921000010B50C785D
:1027600024020443024B9847A4B2024B5C8010BD84
:1027700001270000000C004010B50400064B9847EC
:10278000064B1C70064B5C882405240F054B9847AC
:102790002000054B984710BDC9200000020C0040E6
:1027A000000C0040092100004526000030B5D37818
:1027B000002B35D11378802B29D01B06802464028E
:1027C000234354780225AC4306D19478002C20D1C1
:1027D0008024A402234341605478013C012C1CD97D
:1027E0000D042D0CA024E4052C431C4384620D0C25
:1027F000D02424062C431C438462D478002C22D19C
:102800005B031CD59378012B1ED0416117E0002398
:10281000D7E7C024E4022343DDE70D4C2340DFE784
:1028200041600C04240CA023DB05234383620C0CC1
:10283000D0231B0623438362D378002B03D1537824
:10284000013B012B02D930BD8161F8E78160FAE7D5
:10285000FFFFFBFF10B50A00C1090023002904D1C6
:102860004309DB0105498C4663441F2420400121B4
:1028700081401800024B984710BDC04600440041FB
:10288000AD2700007047000010B5054B9847054B79
:102890009847054B9847054B9847054B984710BDFF
:1028A000A9230000C520000085280000C104000005
:1028B00085280000FEE7000010B5264A264B9A4204
:1028C00011D01A00254B9A420DD2254A03339B1A88
:1028D0009B0801339B0000221F481E498C588450DE
:1028E00004329A42FAD11F4A1F4B9A420AD2D3436A
:1028F0001D495B1803218B4304339B18002102C23E
:102900009342FCD1194AFF21194B8B439360FD3947
:1029100090235B00174AD150174B9A7B2E318A4384
:1029200020210A439A739A7B0C218A4308210A4387
:102930009A739A7B03218A4302210A439A730F4AAE
:10294000536880210B4353600D4B98470D4B9847BC
:10295000FEE7C046082E0000000000201400002002
:1029600004000020200000201C08002000ED00E0F2
:10297000000000000070004100480041004000419C
:10298000052D0000A929000000B583B001A901238D
:102990004B7000228A700B700220024B984703B0E4
:1029A00000BDC046A120000070B50E4B98470E4BED
:1029B00098470E4B98470E4B98470E4B98470E4B37
:1029C00098470E4B98470E4B98470E4B98470E4E24
:1029D0000E4D0F4CB047A8470220A0470D4B98471B
:1029E000F8E7C04689280000092000001511000002
:1029F000FD0D0000110D00007D0B0000710F0000A7
:102A00008D04000089290000A90D0000610200006A
:102A10007520000089100000002243088B4274D307
:102A200003098B425FD3030A8B4244D3030B8B42CF
:102A300028D3030C8B420DD3FF22090212BA030CD8
:102A40008B4202D31212090265D0030B8B4219D3B9
:102A500000E0090AC30B8B4201D3CB03C01A5241D9
:102A6000830B8B4201D38B03C01A5241430B8B4221
:102A700001D34B03C01A5241030B8B4201D30B030A
:102A8000C01A5241C30A8B4201D3CB02C01A524131
:102A9000830A8B4201D38B02C01A5241430A8B42F4
:102AA00001D34B02C01A5241030A8B4201D30B02DD
:102AB000C01A5241CDD2C3098B4201D3CB01C01AF7
:102AC000524183098B4201D38B01C01A5241430901
:102AD0008B4201D34B01C01A524103098B4201D3EF
:102AE0000B01C01A5241C3088B4201D3CB00C01A5C
:102AF000524183088B4201D38B00C01A52414308D4
:102B00008B4201D34B00C01A5241411A00D20146F8
:102B1000524110467047FFE701B5002000F0F0F881
:102B200002BDC0460029F7D076E7704703460B4345
:102B30007FD4002243088B4274D303098B425FD3B6
:102B4000030A8B4244D3030B8B4228D3030C8B42E2
:102B50000DD3FF22090212BA030C8B4202D31212C8
:102B6000090265D0030B8B4219D300E0090AC30B9D
:102B70008B4201D3CB03C01A5241830B8B4201D34A
:102B80008B03C01A5241430B8B4201D34B03C01A33
:102B90005241030B8B4201D30B03C01A5241C30AAB
:102BA0008B4201D3CB02C01A5241830A8B4201D31C
:102BB0008B02C01A5241430A8B4201D34B02C01A06
:102BC0005241030A8B4201D30B02C01A5241CDD2AB
:102BD000C3098B4201D3CB01C01A524183098B42F6
:102BE00001D38B01C01A524143098B4201D34B01DF
:102BF000C01A524103098B4201D30B01C01A524142
:102C0000C3088B4201D3CB00C01A524183088B42C8
:102C100001D38B00C01A524143088B4201D34B00B1
:102C2000C01A5241411A00D2014652411046704723
:102C30005DE0CA0F00D04942031000D34042534028
:102C400000229C4603098B422DD3030A8B4212D3E8
:102C5000FC22890112BA030A8B420CD3890192111A
:102C60008B4208D3890192118B4204D389013AD057
:102C7000921100E08909C3098B4201D3CB01C01A2C
:102C8000524183098B4201D38B01C01A524143093F
:102C90008B4201D34B01C01A524103098B4201D32D
:102CA0000B01C01A5241C3088B4201D3CB00C01A9A
:102CB000524183088B4201D38B00C01A5241D9D2B2
:102CC00043088B4201D34B00C01A5241411A00D233
:102CD0000146634652415B10104601D34042002B2F
:102CE00000D54942704763465B1000D3404201B5AE
:102CF000002000F005F802BD0029F8D016E7704763
:102D00007047C04670B500260C4D0D4C641BA410D6
:102D1000A64209D1002600F067F80A4D0A4C641B50
:102D2000A410A64205D170BDB300EB5898470136F8
:102D3000EEE7B300EB5898470136F2E7F42D0000B8
:102D4000F42D0000F42D0000F82D0000030082187F
:102D5000934200D1704719700133F9E70D0E00005E
:102D600000080042000C0042001000420D0E00005E
:102D70000100000002000000040000000800000044
:102D80000010000000200000004000000080000053
:102D90000000010000000200000004000000080024
:102DA0004A2100004621000046210000A821000021
:102DB000A82100005E2100005021000064210000D5
:102DC000962100002C2300000C2300000C2300009F
:102DD000982300001E2300003A2300001023000067
:102DE0004823000088230000F8B5C046F8BC08BCA2
:102DF0009E467047B5000000F8B5C046F8BC08BC58
:082E00009E4670478D000000A2
:102E08000200C40901000000401F00000800000083
:042E180001000000B5
:04000003000028B918
:00000001FF
